:1000000012C017C016C015C014C013C012C011C052
:1000100010C00FC00EC00DC00CC00BC00AC009C07C
:1000200008C007C006C011241FBECFEDCDBF02D04F
:100030002BC0E6CF8FEF87BB18BA2FE332E48FE0F7
:10004000215030408040E1F700C0000088E088BBCC
:100050009FE72AE136E0915020403040E1F700C0B0
:10006000000080E088BB9FED22E232E0915020400A
:100070003040E1F700C000008F5F803199F78FE4D6
:0C00800093EC0197F1F7EBCFF894FFCF61
:00000001FF
