:1000000012C022C021C020C01FC01EC01DC01CC005
:100010001BC01AC019C018C017C016C015C014C024
:1000200013C012C011C011241FBECFEDCDBF10E010
:10003000A0E6B0E0E8E1F1E002C005900D92A03842
:10004000B107D9F763D066C0DBCF8FEF87BB83ECF6
:1000500081BB12BA80E188BB87EA91E60197F1F78C
:1000600000C0000018BA089580B390E09695879577
:100070009695879508958FEF88BB2FE986E891E0E4
:10008000215080409040E1F700C0000018BA089568
:1000900042E030E120E848BB83E294EF0197F1F7BA
:1000A00000C0000038BB83E294EF0197F1F700C075
:1000B000000028BB83E294EF0197F1F700C0000035
:1000C00080B390E09595879595958795089719F752
:1000D000089580B390E0E3EDF0E33197F1F700C0CD
:1000E000000020B330E035952795359527959595F7
:1000F0008795959587958217930759F7880F991FCC
:10010000FC01E05AFF4F808188BBE3CF9EDFB3DF65
:08011000BFDFDFDFF894FFCF31
:10011800EE002400BA00B6007400D600DE00A40089
:10012800FE00F600FC005E00CA003E001000000061
:00000001FF
